:020000040800F2
:10000000A80400209D0100086D0E00080D0D0008D9
:10001000690E0008CD0200087511000800000000FC
:10002000000000000000000000000000A10E000819
:10003000D1020008000000009D0E0008050F000816
:10004000B7010008B7010008B7010008B7010008B0
:10005000B7010008B7010008B7010008B7010008A0
:10006000B7010008B7010008B7010008B701000890
:10007000B7010008B7010008B7010008B701000880
:10008000B7010008B7010008B7010008B701000870
:10009000B7010008B7010008B7010008B701000860
:1000A000B7010008B7010008B7010008B701000850
:1000B000B7010008B7010008B7010008B701000840
:1000C000B7010008B7010008B7010008B701000830
:1000D000B7010008B7010008B7010008B701000820
:1000E000B7010008B7010008B7010008B701000810
:1000F000B7010008B7010008B7010008B701000800
:10010000B7010008B7010008B7010008B7010008EF
:10011000B7010008B7010008B7010008B7010008DF
:10012000B7010008B7010008B7010008B7010008CF
:10013000B7010008B7010008B7010008B7010008BF
:10014000B7010008B7010008B7010008B7010008AF
:10015000B7010008B7010008B7010008B70100089F
:10016000B7010008B7010008B7010008B70100088F
:10017000B7010008B7010008B7010008000000003F
:10018000B7010008B7010008DFF80CD000F08CF8C8
:1001900000480047E9110008A804002006488047ED
:1001A00006480047FEE7FEE7FEE7FEE7FEE7FEE75C
:1001B000FEE7FEE7FEE7FEE7AD0F00088901000855
:1001C0002DE9F05F0546002092469B46884606468C
:1001D000814640241BE0284641464746224600F01F
:1001E00053F853465A46C01A914110D31146184647
:1001F000224600F03AF82D1A67EB01084F462246D6
:100200000120002100F031F817EB00094E41201EBB
:10021000A4F10104DFDC484631462A464346BDE8E6
:10022000F09F40EA01039B0703D009E008C9121FB1
:1002300008C0042AFAD203E011F8013B00F8013BA0
:10024000521EF9D27047D2B201E000F8012B491ECC
:10025000FBD270470022F6E710B513460A46044663
:100260001946FFF7F0FF204610BD202A04DB203A94
:1002700000FA02F1002070479140C2F1200320FAF9
:1002800003F3194390407047202A04DB203A21FAF7
:1002900002F00021704721FA02F3D040C2F120029F
:1002A0009140084319467047064C074D06E0E06848
:1002B00040F0010394E8070098471034AC42F6D3AD
:1002C000FFF766FF98130008B8130008FEE7000068
:1002D0007047000072B600BFFEE70000B0B50446EC
:1002E00000F0EAF8054640F20400C2F2000000788F
:1002F000611C18BF044400BF00F0DEF8401BA042A0
:10030000FAD3B0BD2DE9F04F83B000F13E4202F1C7
:10031000FF724FEAB22241F600470192C4F202078F
:1003200008224FF0010E00254FF0000A4FF00008A0
:10033000B84208BF072200920AE000BF08F1010896
:100340000AF1040AB8F1100F05F1020500F0A480CB
:100350000C680EFA08FB14EA0B09EFD04C6804F0A5
:10036000030CACF1010EBEF1010F11D80322876816
:1003700002FA05F6CA68B743AA403A438260426867
:10038000C4F3001722EA0B0207FA08F73A43426067
:10039000BCF1030F1CD0C26803238E6803FA05F773
:1003A000BA4306FA05F73A43BCF1020FC2600FD117
:1003B0006FF0030202EA580202440AF01C060F23FF
:1003C000176A03FA06F40B69A743B3403B43136271
:1003D000026803234F68AB409A4307F00303AB4026
:1003E0001A4317F4403F4FF0010E0260A6D00022DE
:1003F00043F644030292C4F202031A6843F600442F
:1004000042F480421A601A68C4F2010402F4804285
:100410000292029A28F003024FF6084B2244CFF6CC
:10042000FF7B52F80B300AF00C070F26BE4023EA80
:10043000060C019B009E072B38BF1E4606FA07F7E5
:1004400047EA0C0342F80B30A2684B6842EA0907FE
:1004500043F60C4CDE0258BF22EA0907A760C4F23B
:10046000010CDCF800209E0242EA090758BF22EA8C
:100470000907CCF8007062689E0342EA090758BF7A
:1004800022EA090767602268DB0342EA090358BFD2
:1004900022EA0903236051E703B0BDE8F08F0000B2
:1004A0000069084018BF012070470000002A08BFFB
:1004B000090481617047000040F2A000C2F2000010
:1004C0000068704740F2040040F2A001C2F2000050
:1004D000C2F2000100780A6810440860704700000A
:1004E00080B543F60040C4F20200016841F4007197
:1004F0000160016841F480610160016841F480712C
:100500000160032000F05CF80F2000F005F800F017
:100510002BF8002080BD0000B0B540F20402C2F20A
:10052000000240F200011278C2F200014FF47A7327
:100530000968B3FBF2F20446B1FBF2F1084600F0A1
:10054000F3FA0F2C4FF001050CD858B94FF0FF30DB
:1005500021460022002500F023F840F20800C2F2F4
:10056000000004602846B0BD82B0002043F6400180
:100570000190C4F202014A6842F480424A604A682B
:1005800002F480420192019A0090086840F0805085
:100590000860086800F080500090009802B0704732
:1005A00070B514460D46064600F0F4FD2946224675
:1005B00000F05EFC0146304600F0F4FD70BD000026
:1005C00080B500F001FE80BD2DE9F041002800F06B
:1005D0008B8043F60808C4F202080446D8F8F803F2
:1005E0000D4600F00700884207D288F8F853D8F883
:1005F000F80300F00700A84276D12068810717D5DC
:10060000410705D5D8F8001041F4E051C8F80010B2
:10061000010705D5D8F8001041F46041C8F8001072
:10062000D8F80010A26821F0F0011143C8F80010BA
:10063000C0073FD1D8F8F80300F00700A84207D957
:1006400088F8F853D8F8F80300F00700A8424BD117
:100650002068410707D5D8F80010E26821F4E0517E
:100660001143C8F80010000708D5D8F80000216928
:1006700020F4604040EAC100C8F8000000F07EF8B5
:10068000D8F8001041F27E32C1F30311C0F6000227
:10069000515C40F2000220FA01F140F20800C2F27F
:1006A00000000068C2F200021160FFF735FF002071
:1006B000BDE8F0816068811E022907D258F8081C45
:1006C00089015CBF0120BDE8F08110E0012807D15D
:1006D00058F8081C89035CBF0120BDE8F08106E0E2
:1006E00058F8081C890702D40120BDE8F081D8F829
:1006F000001021F003010843C8F80000FFF7DCFEFA
:10070000064641F2883700BFD8F80000616800F063
:100710000C00B0EB810F8DD0FFF7CEFE801BB842EE
:10072000F2D90320BDE8F08140F20000C2F20000DF
:100730000068704780B5FFF7F7FF43F60801C4F281
:100740000201096841F28E32C1F38221C0F6000233
:10075000515CC84080BD000080B5FFF7E5FF43F65F
:100760000801C4F20201096841F28E32C1F342313C
:10077000C0F60002515CC84080BD000010B543F6D1
:100780000404C4F20204606800F00C0008280AD0D7
:10079000042819BF42F20040C0F2F40047F64000BE
:1007A000C0F27D1010BD206821682368490247F619
:1007B0004001C0F27D1100F03F02C3F388105CBF1E
:1007C00042F20041C0F2F401A1FB00010023FFF757
:1007D000F7FC21680222C1F3014102EB4101B0FBA9
:1007E000F1F010BD2DE9F04182B0002800F09F80AB
:1007F0000446007843F60006C007C4F2020641D062
:10080000B06800F00C00042805D13068800339D5A9
:100810006068B8BB8BE0B06800F00C00082802D11B
:1008200070684002F1D46568B5F5803F06D0306845
:10083000B5F5A02F06D140F480203060306840F438
:10084000803005E020F480303060306820F4802073
:100850003060FFF731FE002D054610D03068800370
:1008600010D4FFF729FE401B6428F7D922E100BF0E
:10087000FFF722FE401B64284FF0030054D8306875
:100880008003F5D4207880071AD5B06810F00C0FDB
:1008900009D0B06800F00C00082840F08C80706827
:1008A000400200F188803068800702D5E0680128A6
:1008B0003DD13068216920F0F80040EAC100306085
:1008C0002078000737D4207840074AD4A56955B36B
:1008D000B06800F00C00082840F0A080012D26D060
:1008E0007068E16900F480028A4220D1216A00F038
:1008F0003F028A421BD147F6C071626A0140B1EBE8
:10090000821F14D1A16A4FF6FF73C903994300F403
:100910004032A1F580318A4209D1E16A00F070606D
:10092000B0EB016F03D1002002B0BDE8F0810120DF
:1009300002B0BDE8F0816069002840F20000C4F216
:1009400047205AD00121C0F8801EFFF7B5FD0546AB
:10095000706F8007B7D4FFF7AFFD401B0228F7D9AF
:10096000A8E0306C4FF00008C0000CD4CDF8048033
:10097000306C4FF0010840F080503064306C00F073
:1009800080500190019847F20007C4F200073868D0
:10099000C00525D4386840F480703860FFF78CFDBE
:1009A000054600BF3868C0051AD4FFF785FD401B17
:1009B0000228F7D97EE0E068002851D00020C4F278
:1009C000472001210160FFF777FD05463068800769
:1009D0003FF56FAFFFF770FD401B0228F6D969E0C5
:1009E000A568012D05D0306F052D4DD140F00400D4
:1009F0003067306F40F001004CE00021C0F8801EED
:100A0000FFF75AFD054600BF706F80077FF55BAFAB
:100A1000FFF752FD401B0228F6D94BE00027C4F235
:100A2000472700203866FFF747FD022D05460BD10A
:100A30003068800156D5FFF73FFD401B02284FF07C
:100A40000300F5D970E700BF306880017FF56BAF18
:100A5000FFF732FD401B02284FF00300F4D963E793
:100A60000020C4F2472000210160FFF725FD054664
:100A7000306880077FF524AFFFF71EFD401B02287A
:100A80004FF00300F4D94FE720F001003067306FDA
:100A900020F004003067FFF70FFD002D054641F2FE
:100AA000883713D0306F800713D4FFF705FD401B44
:100AB000B842F7D9032002B0BDE8F081FFF7FCFC93
:100AC000401BB8424FF003003FF62EAF306F800757
:100AD000F4D4B8F1000F3FF4F9AE306C20F0805040
:100AE0003064F3E604F11C052FCD084340EA821080
:100AF000D9034FF6FF729143A1F5803140EA0560BA
:100B00000843706001203866FFF7D6FC044600BF3A
:100B1000306880013FF507AFFFF7CEFC001B0228CD
:100B20004FF00300F4D9FFE680B500F0D3F980BDA3
:100B3000002804BF0120704710B5044690F841001A
:100B400028B9002084F84000204600F021F8242035
:100B500084F841002068C16821F40051C16020463A
:100B600000F056FA2068016921F490410161416961
:100B700021F02A014161C16841F40051C1600020A7
:100B80002021606484F8411084F84210606310BD35
:100B900080B586B00021CDE90411CDE902110068CD
:100BA00041F20002C4F201029042019129D044F6C0
:100BB0000041C4F2000188424CD1002043F63001CC
:100BC0000090C4F202010A6942F400220A610A6933
:100BD00002F400220092009A0090086840F004009D
:100BE00008600868082100F00400009000984FF4A5
:100BF0004060019040F20040C4F2020000F58060C5
:100C00001EE043F630000091C4F20200426942F057
:100C100010024261426902F010020092009A0091B3
:100C2000016841F0020101600068072100F0020044
:100C300000900098C020019040F20040C4F20200F1
:100C400002220292002203920322CDE9042101A98B
:100C5000FFF758FB06B080BD2DE9F041044690F83F
:100C6000410020281CBF0220BDE8F0810E4600296B
:100C70004FF0010042D01746002A08BFBDE8F081BE
:100C80004FF0000821201D46C4F8448084F841003C
:100C9000FFF712FCA784E784A1680746B1F5805FDF
:100CA0000DD12069002814BF3046B046064606E044
:100CB00016F8010B21684860E08C0138E084E08C74
:100CC00080B1204680213A462B4600F00FFAB8B991
:100CD000002EEDD138F8020B21686FF35F204860D9
:100CE0000026E9E7204640213A462B4600F0FEF96F
:100CF000202184F84110002818BF0320BDE8F081AE
:100D0000202084F841000320BDE8F081FEE70000C8
:100D10002DE9F04387B0002743F630000697CDE970
:100D20000477CDE902770197C4F20200016800243C
:100D300041F0040101600168C4F2020401F0040101
:100D4000019101990197016804F5E05541F0800196
:100D500001600168002201F0800101910199019771
:100D600001684FF4007641F040010160016801F034
:100D70004001019101990197016841F00101016071
:100D8000016801F00101019101990197016841F0A9
:100D90000201016000684FF4007100F00200019050
:100DA00001982846FFF782FB20464FF400410122BC
:100DB0004FF400484FF00109FFF778FBCDE90269D5
:100DC00002AE28463146CDE90477FFF79BFA0420AE
:100DD000CDE902070220049004F5C0503146FFF728
:100DE00091FA20463146CDE90289CDE90477FFF733
:100DF00089FA07B0BDE8F08380B540F2580044F6A8
:100E00000041C2F20000C4F2000100234FF00C0CBC
:100E10004FF4165280E80E00C0E90333C0E905C361
:100E2000C361FFF785FE002818BFFFF753FA80BDA6
:100E300080B540F2100041F20001C2F20000C4F29D
:100E4000010100234FF00C0C4FF4165280E80E0005
:100E5000C0E90333C0E905C3C361FFF769FE002899
:100E600018BFFFF737FA80BDFEE70000FEE700007D
:100E700000F0070080F00703042B28BF04234FF085
:100E8000FF3C03380CFA03F338BF0020994381403C
:100E90000CFA00F022EA0000084370477047000097
:100EA0007047000080B541F60000C4F20200042142
:100EB000FFF7F6FAB0FA80F0400980BD80B5012155
:100EC00021EA00020020C4F202004FF40041FFF7C3
:100ED000EDFA80BDB0B501380024B4EB106F1CBF33
:100EE0000120B0BD4EF21005CEF2000568604FF053
:100EF000FF300F2100F056F90720AC602860204633
:100F0000B0BD000080B5FFF7DDFA80BD70B592B0CE
:100F100006AC20463021FFF79DF9002543F640003E
:100F20000595CDE90355CDE901550095C4F20200C0
:100F30000168022641F080510160006800F0805095
:100F40000090009847F200000095C4F2000001688C
:100F500041F480410160006800F4804000900098F6
:100F60000120099010200A9008200696CDE90C6512
:100F70000E90A820CDE90F06042011902046FFF71F
:100F800031FC88B90F20CDE901064FF4A050049040
:100F90004FF48050059001A805210395FFF714FB3D
:100FA000002804BF12B070BDFFF794F94EF68850C8
:100FB000CEF20000016841F470010160704700004A
:100FC000016851E8031F026821F4907142E803139D
:100FD000002BF5D1016851E8051F026821F00101DD
:100FE00042E80513002BF5D1016B01290AD100BF9E
:100FF000016851E8031F026821F0100142E8031361
:10100000002BF5D1202180F84210002101637047A8
:1010100010B504460068D4E902C22369016921F4CD
:10102000405111430161626943EA0C01E3691143D4
:10103000C268194349F20C639A431143C160416984
:10104000A26921F4407141F20043114340F48062EF
:10105000C4F201039A42416102D1FFF77DFB01E036
:10106000FFF768FBE16963681922B1F5004FA0FB47
:1010700002011CD15A00DB0FFFF7A2F848F21F5102
:10108000C5F2EB11A0FB01235A096FF0630302FBC9
:101090000300322303EBC000A0FB01014FF4F87002
:1010A00000EA111000EB0210C1F342111AE09A009D
:1010B0009B0FFFF785F848F21F51C5F2EB11A0FB1B
:1010C00001235A096FF0630302FB0300322303EB91
:1010D0000010A0FB0101F02000EA511000EB02100B
:1010E000C1F3431122680843906010BD2DE9F0411F
:1010F00082B00446006800680840884203D100209E
:1011000002B0BDE8F0811D460E4690465F1C04E02B
:10111000206800683040B04228D0002FF8D0FFF798
:10112000CBF901464FF003000DB3A1EB0801A94232
:101130001DD82068C1684907EAD5402EE8D0802E26
:10114000E6D001680907E3D5002501950168019102
:101150004068019001982046FFF732FF0820606444
:1011600084F84050012002B0BDE8F081002002B0B8
:10117000BDE8F081FEE7000081B04FF47A70009086
:10118000009828B100980138009000980028F9D103
:1011900001B070474EF60C50CEF200000068C0F36C
:1011A000022070474EF6145300F00F02CEF20003F7
:1011B00009011A4400F16043B0F1FF3FC8BF03F5D5
:1011C00064421170704700004EF60C51CEF20001DF
:1011D0000A684FF6FF031A4060F30A2242F080606B
:1011E00040F0FD7008607047ACB041F210310DF175
:1011F000400841F60044C0F6000140466E22C4F2A9
:101200000204FFF70EF841F2D420C0F6000090E887
:101210008E00D0E90465D0E906CE049700F12007DE
:10122000806B019102920393CDE90565EECFCDE984
:1012300007CE0F9009A8EEC0FFF752F9FFF766FE40
:10124000FFF766FDFFF7D8FDFFF7F2FD40F210064D
:1012500040F25805C2F2000601AFC2F2000500BF1D
:101260004FF47A70FFF73AF8FFF71CFEFFF726FEFF
:10127000FFF782FF20464FF400710022FFF716F9B6
:10128000FFF77AFF304639463C224FF6FF73FFF7EF
:10129000E3FC284641466E224FF6FF73FFF7DCFC65
:1012A000FFF76AFF20464FF400710122FFF7FEF8B6
:1012B000FFF762FFD4E702E008C8121F08C1002A46
:1012C000FAD170477047002001E001C1121F002AC7
:1012D000FBD170474C573C0001000101FFFFFFFFAD
:1012E000FFFFFFFFFFFFFFFFFFFFFFFFFFFFFFFF0E
:1012F000FFFFFFFFFFFFFFFFFFFFFFFFFFFFFFFFFE
:10130000FFFFFFFFFFFFFFFFFFFFFFFF00000D0AD2
:10131000AA555AA54A6EAAAAAAAABBBBBBBB1D3E28
:1013200000000000E2018C00EA56CCCCDDDDEEEEE0
:101330001052670AB31A5E4AD2561A3E0000F701ED
:1013400005070100000000000000000000009330CD
:10135000F7FFF430690052A7FEFFF96A19006483B1
:101360002100DB651EFA23070034FFFFFF11111176
:1013700022220000000000000000000010240000F5
:101380000000000000000102030406070809000035
:101390000000010203040000B81300080000002050
:1013A00010000000B6120008C8130008100000204A
:1013B00098040000C61200080024F4000100000098
:0813C000100000000000000015
:040000050800018965
:00000001FF
