:020000040800F2
:1000000090040020A10100084B12000825110008EF
:1000100049120008D102000867150008000000001E
:10002000000000000000000000000000EB120008CB
:10003000D3020008000000004D120008ED12000875
:10004000BB010008BB010008BB010008BB010008A0
:10005000BB010008BB010008BB010008BB01000890
:10006000BB010008BB010008BB010008BB01000880
:10007000BB010008BB010008BB010008BB01000870
:10008000BB010008BB010008BB010008BB01000860
:10009000BB010008BB010008BB010008BB01000850
:1000A000BB010008BB010008BB010008BB01000840
:1000B000BB010008BB010008BB010008BB01000830
:1000C000BB010008BB010008BB010008BB01000820
:1000D000BB010008BB010008BB010008BB01000810
:1000E000BB010008BB010008BB010008BB01000800
:1000F000BB010008BB010008BB010008BB010008F0
:10010000BB010008BB010008BB010008BB010008DF
:10011000BB010008BB010008BB010008BB010008CF
:10012000BB010008BB010008BB010008BB010008BF
:10013000BB010008BB010008BB010008BB010008AF
:10014000BB010008BB010008BB010008BB0100089F
:10015000BB010008BB010008BB010008BB0100088F
:10016000BB010008BB010008BB010008BB0100087F
:10017000BB010008BB010008BB0100080000000033
:10018000BB010008BB010008DFF810D000F08EF8BA
:1001900000480047D5150008AFF300809004002008
:1001A0000648804706480047FEE7FEE7FEE7FEE711
:1001B000FEE7FEE7FEE7FEE7FEE7FEE7891300083D
:1001C000890100082DE9F05F0546002092469B4614
:1001D00088460646814640241BE02846414647465D
:1001E000224600F053F853465A46C01A914110D3A4
:1001F00011461846224600F03AF82D1A67EB01081E
:100200004F4622460120002100F031F817EB00098B
:100210004E41201EA4F10104DFDC484631462A4647
:100220004346BDE8F09F40EA01039B0703D009E085
:1002300008C9121F08C0042AFAD203E011F8013BD2
:1002400000F8013B521EF9D27047D2B201E000F82B
:10025000012B491EFBD270470022F6E710B513466A
:100260000A4604461946FFF7F0FF204610BD202A33
:1002700004DB203A00FA02F1002070479140C2F1FD
:10028000200320FA03F3194390407047202A04DB2F
:10029000203A21FA02F00021704721FA02F3D040FF
:1002A000C2F120029140084319467047064C074DA1
:1002B00006E0E06840F0010394E807009847103436
:1002C000AC42F6D3FFF764FF6817000888170008F0
:1002D000FEE7704772B6FEE770B5044600F006F917
:1002E0000546601C02D004480078044400F0FEF883
:1002F000401BA042FAD370BD040000202DE9F84F46
:10030000DFF8BCA10022012503264FF00F090AF1F6
:10031000040BAAF1040E00BF0B6805FA02F4234097
:10032000A34270D10F7907F00307012F01D0022FEC
:1003300016D187684FEA420806FA08FC27EA0C073C
:10034000D1F80CC00CFA08FC4CEA070CC0F808C045
:100350004768A7430C79C4F3001494403C434460BD
:100360000C79E443A4070AD0C4684FEA420C06FAA9
:100370000CF7BC438F6807FA0CF72743C7600C796A
:1003800004F00304022C12D1D40800EB840CDCF836
:1003900020405707FF0E09FA07F824EA0804D1F8AD
:1003A000108008FA07F848EA0408CCF820800468AE
:1003B0004FEA420C06FA0CF7BC430F7907F003072B
:1003C00007FA0CF7274307604C6814F4403F70D0DD
:1003D0003C4C276847F480472760246822F00307D5
:1003E00004F480440094384C07EB040CDCF8084813
:1003F00097074FEA177809FA08F7BC43334FB8421A
:1004000002D1002724E054E0314FB84201D1012746
:100410001EE0304FB84201D1022719E02E4FB842FA
:1004200001D1032714E02D4FB84201D104270FE07A
:100430002B4FB84201D105270AE02A4FB84201D11B
:10044000062705E0284FB84201D1072700E008271A
:1004500007FA08F72743CCF80878DAF8004057463F
:10046000D1F804C09C435FEACC2C00D51C433C600F
:10047000DBF800405F46D1F804C09C435FEA8C2C57
:1004800000D51C433C60DEF800407746D1F804C03C
:100490009C435FEA8C3C00D51C433C60084F083FFE
:1004A0003C68D1F804C09C435FEACC3C00D51C43B7
:1004B0003C60521C102AFFF42FAFBDE8F88F0000FB
:1004C000083C014044380240003001400000024036
:1004D0000004024000080240000C024000100240EC
:1004E0000014024000180240001C024001488068CD
:1004F000704700000400002002488168027811441F
:1005000081607047040000200B4810B5016841F479
:1005100000710160016841F480610160016841F48B
:1005200080710160032000F061F80F2000F006F8F0
:1005300000F024F8002010BD003C024070B50D4DC5
:1005400004464FF47A712878B1FBF0F00A49096843
:10055000B1FBF0F000F01AFD48B9102C07D20022D0
:100560002146501E00F022F800206C6070BD012072
:1005700070BD000004000020100000200A4808B5EB
:10058000016841F480410160006800F480400090FF
:100590000548001F016841F080510160006800F0CB
:1005A0008050009008BD000044380240F0B40E4B6B
:1005B0001B680C46C3F30223C3F10705042D00D9C1
:1005C0000425191D072901D2002300E0DB1E0126A6
:1005D00006FA05F1491E214099409E40761E1640BC
:1005E0003143F0BC00F0C0BF0CED00E0064900F064
:1005F000070208684FF6FF03184040EA0220034A4A
:1006000010430860704700000CED00E00000FA05A0
:100610002DE9F843054600684FF00109C1074FF086
:10062000000601D1400727D5DFF80C81C8F86860C3
:10063000FFF75CFF0746414C05E000BFFFF756FFA0
:10064000C01B022857D820680001F7D468688101D0
:10065000287A41EA0070394984310860C8F8689006
:10066000FFF744FF074604E0FFF740FFC01B0228E6
:1006700041D820680001F7D52878800752D52F4847
:100680004030016841F08051016000682C4C00F05E
:1006900080500090206840F480702060FFF726FFB3
:1006A000074604E0FFF722FFC01B022823D820687A
:1006B000C005F7D5214C7034206810F4407020D06C
:1006C000A98901F4407181421BD020681D4920F4A2
:1006D0004070C1F800900E6020602068C00710D004
:1006E000FFF704FF064641F2883707E0FFF7FEFEFA
:1006F000801BB84202D90320BDE8F8832068800738
:10070000F4D5E9680D48C1F301220830032A0BD063
:10071000016821F4F81101602068A989C1F30B0177
:10072000084320600020E7E70268074B22F4F81234
:1007300019400A430260EFE70000474200380240D8
:1007400000700040400E4742FFFCFF0F2DE9F047CC
:100750000E46050065D0DFF81481D8F80000F7B226
:1007600000F00700B04207D288F80070D8F8000007
:1007700000F00700B04254D128683D4C810712D5E3
:10078000400703D5206840F4E05020602878000737
:1007900003D5206840F4604020602068A96820F0FC
:1007A000F000084320602878C0072DD030496868E1
:1007B0000839012812D0022813D0032811D0096863
:1007C000890700292DDA216821F003010143216006
:1007D000FFF78CFE814641F2883A0EE009688903F2
:1007E000EFE709688901ECE7FFF780FEA0EB09015C
:1007F000514502D90320BDE8F0872068696800F000
:100800000C00B0EB810FEFD1D8F80010404601F09A
:100810000701B14207D90770006800F00700B04235
:1008200001D00120E7E72878400705D52068E9686E
:1008300020F4E050084320602878000706D520689F
:10084000296920F4604040EAC100206000F038F8D7
:100850002168084AC1F30311515CC8400649086089
:1008600006480068FFF76AFE0020C4E7003C02402B
:10087000083802404E170008100000200800002031
:100880000448054900680968044AC1F38221515CA3
:10089000C840704710000020083802405E1700086A
:1008A0000448054900680968044AC1F34231515CB3
:1008B000C840704710000020083802405E1700084A
:1008C000154810B5006810F00C02144813D01449F4
:1008D000042A0FD0082A0ED10F4C241F2268236847
:1008E00002F03F025B0207D52068C0F38810A0FB2E
:1008F000010106E0084610BD2168C1F38811A1FB83
:1009000000010023FFF75EFC2168C1F30141491C8F
:100910004900B0FBF1F010BD083802400024F4009B
:1009200040787D012DE9F84F04006ED02078DFF883
:100930004C93C007A9F104054AD009F104000168ED
:10094000C1F38101012908D00068C0F381000228A9
:100950000AD1D9F80000400206D52868800337D5AF
:1009600060680028E1D033E06068B0F5803F10D0C7
:10097000B0F5A02F286810D020F4803028602868B7
:1009800020F4802028606068A8B1FFF7AFFD06461C
:100990000DE0286840F48030F4E740F480202860BF
:1009A000F7E700BFFFF7A2FD801B642873D8286813
:1009B0008003F7D50CE0FFF799FD064605E000BF80
:1009C000FFF794FD801B6428F0D828688003F7D4D3
:1009D0002078DFF8AC8280074FF0000A3ED5A748A8
:1009E000001D016811F00C0F08D00068C0F38100F1
:1009F00002280BD1D9F80000400207D428688007EC
:100A000016D5E068012800D112E033E1E068B8B102
:100A10000120C8F80000FFF769FD064605E000BFA9
:100A2000FFF764FD801B0228C0D828688007F7D52F
:100A30002868216920F0F80040EAC10028600DE034
:100A4000C8F800A0FFF752FD064604E0FFF74EFD90
:100A5000801B02281FD828688007F7D42078000759
:100A600022D5864F87486169703771B101210160D5
:100A7000FFF73CFD064604E0FFF738FD801B022827
:100A800009D838688007F7D50EE0C0F800A0FFF756
:100A90002DFD064605E082E0FFF728FD801B0228B9
:100AA0007DD838688007F7D42078400768D5DFF80C
:100AB000CCB100270BF13C0BDBF80000C0000BD4DD
:100AC000DBF8001041F08051CBF80010DBF800009B
:100AD000012700F0805000906B4E3068C00510D4A4
:100AE000306840F480703060FFF700FD009005E052
:100AF000FFF7FCFC0099401A022850D83068C00566
:100B0000F6D55E4EA0686C3601280FD005283068F7
:100B100010D020F001003060306820F00400306018
:100B2000A068B8B1FFF7E2FC00900FE0306840F039
:100B30000100F4E740F004003060F7E7FFF7D6FC6F
:100B40000099411A41F28830814266D830688007A6
:100B5000F4D50EE0FFF7CAFC009007E0FFF7C6FCF3
:100B60000099411A41F28830814256D83068800796
:100B7000F4D42FB1DBF8001021F08051CBF8001035
:100B8000A069C8B33D49091D0968C1F38101022963
:100B90004AD00228504607D0C8F8600000E03CE088
:100BA000FFF7A4FC04463BE04746C8F86000FFF7A7
:100BB0009DFC064605E000BFFFF798FC801B02285D
:100BC0002BD828688001F7D4D4E907010843A16A2B
:100BD0002E4A490802EB0141626A41EA8211084348
:100BE00094F82C1040EA0161C9F800100120386621
:100BF000FFF77CFC044606E03EE000BFFFF776FC12
:100C0000001B022809D828688001F7D534E000BF0E
:100C1000FFF76CFC001B022802D90320BDE8F88F07
:100C200028688001F4D427E00128F7D0D9F8000023
:100C3000E26900F4800191421CD1226A00F03F0178
:100C4000914217D147F6C071626A0140B1EB821F31
:100C500010D1A26A4FF0FF3300F4403103EB52028F
:100C6000B1EB024F06D194F82C1000F07060B0EB9D
:100C7000016F01D00120D1E70020CFE70438024006
:100C800000004742800E4742007000400000FFFF16
:100C900010B500680B4641680D480140080CD8703B
:100CA000C1F304245C7001F03F049C70C1F3423135
:100CB000197052B900F0CBFAD870587800F0C7FA22
:100CC0005870987800F0C3FA9870002010BD0000AA
:100CD0003FFFFF0010B50B460168896A5960016843
:100CE0000969C1F30E019960006801680D4801406F
:100CF000C1F305401870C1F306245C7001F07F0455
:100D00009C70890DD97052B900F0A1FA187058780A
:100D100000F09DFA5870987800F099FA98700020C9
:100D200010BD00007F7F7F0010B5040002D0607FFF
:100D300010B106E0012010BD00202077204600F011
:100D400041F8022060772068C168C943C90632D5DE
:100D5000CA214162216853204862204600F08CFA83
:100D600020BB20688168164A11408160216888682C
:100D700062681043D4E904231A4310438860216851
:100D8000E068086120680169228941EA0241016145
:100D9000204600F095FA48B921680A6C22F48022B6
:100DA0000A6421680A6CA3691A430A642268FF2155
:100DB000516208B110BD00200121617710BD000013
:100DC000BFFF8FFF1FB50021009101910291039198
:100DD0000068084988420CD102200090C0010390AD
:100DE0006846FFF715FC08B1FFF774FA02490120C5
:100DF00008601FBD002800403C0E474270B5044605
:100E0000007F0B46012819D0012626770220607743
:100E1000B2B19878D97840EA01455878197800023B
:100E200040EA413005432168CA20486221685320C6
:100E30004862204600F020FAD0B122E0022070BDC6
:100E40005878C10603D500F0EF000A305870D87802
:100E500000F006FA0204587800F002FA42EA002292
:100E6000987800F0FDF90243187842EA4035DAE755
:100E70000748054020684560204600F021FA00B987
:100E800066772268FF2151620021217770BD000042
:100E90003FFFFF002DE9F0410446007F0D46012889
:100EA00023D04FF0010884F81C800220607720686E
:100EB000002780684FEA4060D2B1002800DBEF7065
:100EC000A878297840EA01466878E978000240EA83
:100ED000815006432168CA20486221685320486235
:100EE000204600F0C9F9B8B12CE00220BDE8F0813D
:100EF000002800DBEF70287800F0B2F9020468786F
:100F000000F0AEF942EA0022A87800F0A9F9024305
:100F1000E87842EA8056DDE70D4806402068066022
:100F20002068816821F480218160D5E903010843AC
:100F300021688A6810438860204600F0C1F908B92A
:100F400084F81D802268FF2151622777CEE70000D8
:100F50007F7F7F0070B504460B482168C860FFF7AB
:100F6000C5FA05464FF47A7607E000BFFFF7BEFAF0
:100F7000401BB04201D9032070BD2068C0688006C4
:100F8000F4D5002070BD00005F7F010010B5401E49
:100F9000B0F1807F01D3012010BD4FF0E0246061EB
:100FA0000F21601700F0E0FA0020A0610720206107
:100FB000002010BD70B5040004D094F84100002555
:100FC00010B106E0012070BD84F84050204600F0CA
:100FD00023F8242084F841002068C16821F40051DE
:100FE000C160204600F000FA2068016921F49041B8
:100FF00001612068416921F02A0141612068C168CE
:1010000041F40051C1606564202084F8410084F8F7
:1010100042006563002070BD10B586B004461421FF
:101020006846FFF719F914492068884221D113480E
:101030000021026842F010020260006800F0100017
:1010400005900E481438026842F001020260006800
:1010500000F0010005904FF4C06000900220CDE93F
:101060000101032003900720049069460448FFF71C
:1010700045F906B010BD00000010014044380240A0
:10108000000002402DE9F843044690F841009846DC
:1010900016460D46202802D00220BDE8F88385B10F
:1010A0007EB100206064212084F84100FFF71EFA21
:1010B000A6848146E684A0682027B0F5805F02D030
:1010C00003E00120E9E7206910B12E4600250EE07B
:1010D00000260CE08021204600F00CFAA8B9C6B129
:1010E00016F8010B21684860E08C401EE084E08C1B
:1010F0004B464FF00002CDF800800028EAD14FF0B7
:101100004001204600F0F6F940B184F84170032018
:10111000C3E735F8020BC0F30800E3E784F8417039
:101120000020BAE7FEE7000000B587B0142168464A
:10113000FFF792F814480021026842F004020260AE
:10114000026802F004020592026842F08002026026
:10115000026802F080020592026842F00102026019
:10116000006800F0010005904FF4406000900220FC
:10117000CDE901010320039008200490694603484B
:10118000FFF7BCF807B000BD30380240000802404D
:1011900010B586B014216846FFF75EF81B4800249E
:1011A00019490594C0E900147F218160FF21C0E93D
:1011B000031444618461FFF7B7FD08B1FFF78AF8B3
:1011C0008DF800408DF801408DF802400394012213
:1011D00069460E480494FFF75DFE08B1FFF77AF800
:1011E00001208DF814008DF815008DF816000246C8
:1011F0008DF8174005A90548FFF700FE002801D02B
:10120000FFF768F806B010BD002800402800002055
:101210000C4810B50A4901604FF46131416000216A
:1012200081600C22C160C0E904128161C161FFF7D5
:10123000C1FE002803D0BDE81040FFF74BB810BD39
:101240000010014048000020FEE7FEE7704701095A
:1012500001EB810100F00F0000EB4100C0B27047CC
:10126000002102E00A38C0B2491C0A28FAD2090754
:1012700040EA1160704700002DE9F0410446006823
:101280000025C168490618D4C16841F08001C160D9
:10129000FFF72CF906464FF47A78042707E000BFE1
:1012A000FFF724F9801B404501D9677701252068A5
:1012B000C068400601D4002DF2D02846BDE8F08178
:1012C00070B5044600680025C16821F08001C16046
:1012D00020688068800606D42046FFF73BFE10B1E8
:1012E000042060770125284670BD7047FFF704B9D8
:1012F00030B593B030216846FEF7AEFF14210CA83C
:10130000FEF7AAFF1E480024016841F080510160E9
:10131000006800F0805011901A48016841F4804143
:1013200001600068022500F48040119006200090C2
:101330000120029003901020049006950820CDE92A
:101340000740A820CDE9090504200B906846FFF767
:10135000E9FA08B172B6FEE70F20CDE90C054FF4AB
:10136000A050CDE90E404FF48050109005210CA8FC
:10137000FFF7ECF9002801D072B6FEE713B030BDDC
:1013800040380240007000400248016841F470019A
:101390000160704788ED00E001680C3151E8002FD2
:1013A00022F4907241E80023002BF5D1016814313A
:1013B00051E8002F22F0010241E80023002BF5D173
:1013C000016B012909D101680C3151E8002F22F08D
:1013D000100241E80023002BF5D1202180F84210B3
:1013E000002101637047000070B504460068016980
:1013F000E26821F44051114301612169A068E2696A
:1014000008436169114308432168CA6849F20C63C3
:101410009A430243CA6020684169A26921F440717D
:101420001143416131492068884202D030498842E5
:1014300002D1FFF735FA01E0FFF722FAE269002353
:10144000192164253226B2F5004F626828D0A0FB2E
:101450000101930F9200FEF7B5FE0146B0FBF5F0D7
:101460006FF01802504301EB800006EB0010B0FB58
:10147000F5F000F0F002B1FBF5F002EB0012B1FB69
:10148000F5F06FF01803584301EB800006EB0010F5
:10149000B0FBF5F000F00F0021681044886070BDCB
:1014A000A0FB010192185B41FEF78CFE0146B0FBE8
:1014B000F5F00201B1FBF5F06FF01803584301EBB2
:1014C000800006EBC000B0FBF5F000F0F80002EB86
:1014D0004002B1FBF5F0584301EB800006EBC00081
:1014E000B0FBF5F000F00700D6E700000010014067
:1014F000001401402DE9F843984617460D4604466E
:10150000089E24E0701C22D0FEF7F0FFA0EB08003C
:10151000B0421AD8CEB12068C168490717D5802DCE
:1015200015D0402D13D00168C94309070FD40168B5
:101530000025406800902046FFF72EFF08206064D9
:1015400084F840500120BDE8F8830320FBE72068C1
:10155000006835EA000004D00020B842D2D0002054
:10156000F1E70120F9E7FEE70907090E002804DB8F
:1015700000F1E02080F80014704700F00F0000F147
:10158000E02080F8141D704702E008C8121F08C14F
:10159000002AFAD170477047002001E001C1121FF4
:1015A000002AFBD1704742F2107312FB03F264234E
:1015B00011FB03F1114408447047034610B50020A5
:1015C000024603E09C5C521C204480B28A42F9DB54
:1015D00010BD00009CB070223C496846FEF723FE17
:1015E000FEF792FFFFF784FEFFF79EFDFFF7D0FDA9
:1015F000FFF70EFE364E0220364DB0700720707099
:101600001820F0700A20A87068700F20287000243D
:10161000EC70224631463048FFF7F0FB08B172B655
:10162000FEE700222B492C48FFF734FC08B172B6C4
:10163000FEE74FF6FF784FF46179002225492648EE
:10164000FFF748FB0746002221492348FFF720FB0C
:10165000F8B18DF85A408DF85B408DF85C4037B397
:101660008DF85D408DF85E408DF85F406C216846D6
:10167000FFF7A3FF8DF86C00000A8DF86D0043465C
:101680006E2269461548FFF7FDFC4846FEF724FE2A
:10169000D3E7F2787178B078FFF785FF8DF85A00BC
:1016A000010A000C8DF85B108DF85C00D7E72A78F2
:1016B0006978A878FFF777FF8DF85D00010A8DF84B
:1016C0005E10000C8DF85F00D0E70000E016000807
:1016D0000000002014000020280000204800002006
:1016E000AA555AA54A6E6E0AB31A604AD2561D3ED2
:1016F00000000000E2018C00EAFF1EFEDB01640B2B
:101700001052670AB31A5E4AD2561A3E0000F70119
:1017100005070100000000000000000000009330F9
:10172000F7FFF430690052A7FEFFF96A19006483DD
:101730002100DB651EFA2307000012AB03364F01C0
:101740003A0200000000000000000000781E0000C7
:101750000000000000000102030406070809000061
:1017600000000102030400008817000800000020A8
:1017700014000000881500089C17000814000020C1
:101780007C04000098150008000000000100000023
:0C17900010000000000000000024F40025
:040000050800018965
:00000001FF
