:020000040800F2
:10000000C006002029020008FD0E0008250E000889
:10001000F90E000821040008D511000800000000B6
:10002000000000000000000000000000310F000888
:1000300025040008000000002D0F0008650F0008CF
:10004000430200084302000843020008430200087C
:10005000430200084302000843020008430200086C
:10006000430200084302000843020008430200085C
:10007000430200084302000843020008430200084C
:10008000430200084302000843020008430200083C
:10009000430200084302000843020008430200082C
:1000A000430200084302000843020008430200081C
:1000B000430200084302000843020008430200080C
:1000C00043020008430200084302000843020008FC
:1000D00043020008430200084302000843020008EC
:1000E00043020008430200084302000843020008DC
:1000F00043020008430200084302000843020008CC
:1001000043020008430200084302000843020008BB
:1001100043020008430200084302000843020008AB
:10012000430200084302000843020008430200089B
:10013000430200084302000843020008430200088B
:10014000430200084302000843020008430200087B
:10015000430200084302000843020008430200086B
:10016000430200084302000843020008430200085B
:100170004302000843020008430200080000000098
:10018000430200084302000800F002F800F03CF8C7
:100190000AA090E8000C82448344AAF10107DA45E2
:1001A00001D100F031F8AFF2090EBAE80F0013F0F8
:1001B000010F18BFFB1A43F001031847801100001C
:1001C000A0110000103A24BF78C878C1FAD85207AD
:1001D00024BF30C830C144BF04680C6070470000C1
:1001E0000023002400250026103A28BF78C1FBD840
:1001F000520728BF30C148BF0B6070471FB501F0E0
:1002000065F81FBD10B510BD00F0D0F81146FFF71E
:10021000F5FF01F019F800F0EEF803B4FFF7F2FF74
:1002200003BC00F0F5F80000094880470948004782
:10023000FEE7FEE7FEE7FEE7FEE7FEE7FEE7FEE796
:10024000FEE7FEE704480549054A064B70470000F3
:100250000D10000889010008C0000020C006002021
:10026000C0020020C002002053EA020C00F06980A6
:100270002DE9F04B4FF00006002B1FBFB3FA83F5BA
:1002800003FA05F424FA05F65E4012BF1643B2FAEB
:1002900082F502FA05F4C5F120051EBF22FA05FC1D
:1002A00044EA0C04203556EA044C4FEA144418BFC3
:1002B000641C4FF000084FF00009904271EB030CF2
:1002C00039D3002919BFB1FA81F701FA07F6B0FA5C
:1002D00080F700FA07F6C7F120071EBF20FA07FCD7
:1002E00046EA0C062037B6FBF4FCA7EB0507103FE7
:1002F00007F01F0BCBF120062CFA06F60CFA0BFBCD
:1003000044BFB3460026202FA4BF5E464FF0000B2B
:100310005BEA060C08BF4FF0010B19EB0B0948EB29
:100320000608ABFB027C06FB02CC0BFB03CCC01B1C
:1003300071EB0C01C1E70B46024641464846BDE859
:10034000F08B13B5084318BF4FF0FF300146AFF3F1
:100350000080BDE81C4070474FF0000200B5134616
:1003600094469646203922BFA0E80C50A0E80C50D5
:10037000B1F12001BFF4F7AF090728BFA0E80C5086
:1003800048BF0CC05DF804EB890028BF40F8042B7F
:1003900008BF704748BF20F8022B11F0804F18BFEC
:1003A00000F8012B7047704770477047754600F0A2
:1003B0002BF8AE4605006946534620F007008546F7
:1003C00018B020B5FFF73EFFBDE820404FF0000613
:1003D0004FF000074FF000084FF0000BAC46ACE8C0
:1003E000C009ACE8C009ACE8C009ACE8C00921F01C
:1003F00007018D46704710B50446AFF300802046D4
:10040000BDE81040FFF709BF00487047100000200A
:1004100001491820ABBEFEE726000200704700002D
:10042000FEE700007047000072B600BFFEE7000064
:10043000B0B5044600F0E4F8054640F20400C2F20C
:1004400000000078611C18BF044400BF00F0D8F819
:10045000401BA042FAD3B0BD2DE9F04F83B000F1AC
:100460003E4202F1FF724FEAB22241F6004701928A
:10047000C4F2020708224FF0010E00254FF0000AD7
:100480004FF00008B84208BF072200920AE000BF00
:1004900008F101080AF1040AB8F1100F05F102058C
:1004A00000F0A4800C680EFA08FB14EA0B09EFD0E8
:1004B0004C6804F0030CACF1010EBEF1010F11D831
:1004C0000322876802FA05F6CA68B743AA403A438E
:1004D00082604268C4F3001722EA0B0207FA08F7A9
:1004E0003A434260BCF1030F1CD0C26803238E68FC
:1004F00003FA05F7BA4306FA05F73A43BCF1020FCF
:10050000C2600FD16FF0030202EA580202440AF0FF
:100510001C060F23176A03FA06F40B69A743B340BE
:100520003B431362026803234F68AB409A4307F0D2
:100530000303AB401A4317F4403F4FF0010E026033
:10054000A6D0002243F644030292C4F202031A68C2
:1005500043F6004442F480421A601A68C4F201046F
:1005600002F480420292029A28F003024FF6084BEE
:100570002244CFF6FF7B52F80B300AF00C070F260F
:10058000BE4023EA060C019B009E072B38BF1E4687
:1005900006FA07F747EA0C0342F80B30A2684B68EB
:1005A00042EA090743F60C4CDE0258BF22EA09076B
:1005B000A760C4F2010CDCF800209E0242EA0907A1
:1005C00058BF22EA0907CCF8007062689E0342EA2D
:1005D000090758BF22EA090767602268DB0342EA7D
:1005E000090358BF22EA0903236051E703B0BDE8BD
:1005F000F08F0000002A08BF0904816170470000E5
:1006000040F2B800C2F200000068704740F20400F7
:1006100040F2B801C2F20000C2F2000100780A689C
:10062000104408607047000080B543F60040C4F2F3
:100630000200016841F400710160016841F48061C9
:100640000160016841F480710160032000F05CF8F2
:100650000F2000F005F800F02BF8002080BD00000E
:10066000B0B540F20402C2F2000240F2000112787A
:10067000C2F200014FF47A730968B3FBF2F2044648
:10068000B1FBF2F1084600F0F3FA0F2C4FF0010530
:100690000CD858B94FF0FF3021460022002500F059
:1006A00023F840F20800C2F2000004602846B0BD02
:1006B00082B0002043F640010190C4F202014A6872
:1006C00042F480424A604A6802F480420192019AF0
:1006D0000090086840F080500860086800F0805082
:1006E0000090009802B0704770B514460D4606465B
:1006F00000F080FD2946224600F002FC014630460B
:1007000000F080FD70BD000080B500F08DFD80BD63
:100710002DE9F041002800F08B8043F60808C4F270
:1007200002080446D8F8F8030D4600F00700884296
:1007300007D288F8F853D8F8F80300F00700A84269
:1007400076D12068810717D5410705D5D8F8001064
:1007500041F4E051C8F80010010705D5D8F80010A1
:1007600041F46041C8F80010D8F80010A26821F0E8
:10077000F0011143C8F80010C0073FD1D8F8F803C2
:1007800000F00700A84207D988F8F853D8F8F80312
:1007900000F00700A8424BD12068410707D5D8F8E0
:1007A0000010E26821F4E0511143C8F8001000077E
:1007B00008D5D8F80000216920F4604040EAC10063
:1007C000C8F8000000F07EF8D8F8001041F224329A
:1007D000C1F30311C0F60002515C40F2000220FA9E
:1007E00001F140F20800C2F200000068C2F200020B
:1007F0001160FFF735FF0020BDE8F0816068811EC1
:10080000022907D258F8081C89015CBF0120BDE805
:10081000F08110E0012807D158F8081C89035CBF5B
:100820000120BDE8F08106E058F8081C890702D4D1
:100830000120BDE8F081D8F8001021F00301084341
:10084000C8F80000FFF7DCFE064641F2883700BF1B
:10085000D8F80000616800F00C00B0EB810F8DD07B
:10086000FFF7CEFE801BB842F2D90320BDE8F0812D
:1008700040F20000C2F200000068704780B5FFF748
:10088000F7FF43F60801C4F20201096841F234326D
:10089000C1F38221C0F60002515CC84080BD000057
:1008A00080B5FFF7E5FF43F60801C4F202010968CD
:1008B00041F23432C1F34231C0F60002515CC8400B
:1008C00080BD000010B543F60404C4F20204606861
:1008D00000F00C0008280AD0042819BF42F200409A
:1008E000C0F2F40047F64000C0F27D1010BD206851
:1008F00021682368490247F64001C0F27D1100F0EB
:100900003F02C3F388105CBF42F20041C0F2F40121
:10091000A1FB00010023FFF7A7FC21680222C1F31D
:10092000014102EB4101B0FBF1F010BD2DE9F041B6
:1009300082B0002800F09F800446007843F600064D
:10094000C007C4F2020641D0B06800F00C000428D1
:1009500005D13068800339D56068B8BB8BE0B068DA
:1009600000F00C00082802D170684002F1D46568DC
:10097000B5F5803F06D03068B5F5A02F06D140F41C
:1009800080203060306840F4803005E020F4803012
:100990003060306820F480203060FFF731FE002D99
:1009A000054610D03068800310D4FFF729FE401BA5
:1009B0006428F7D922E100BFFFF722FE401B64281C
:1009C0004FF0030054D830688003F5D420788007B6
:1009D0001AD5B06810F00C0F09D0B06800F00C0008
:1009E000082840F08C807068400200F188803068F0
:1009F000800702D5E06801283DD13068216920F0E8
:100A0000F80040EAC10030602078000737D4207831
:100A100040074AD4A56955B3B06800F00C00082817
:100A200040F0A080012D26D07068E16900F48002BA
:100A30008A4220D1216A00F03F028A421BD147F648
:100A4000C071626A0140B1EB821F14D1A16A4FF6F6
:100A5000FF73C903994300F44032A1F580318A4203
:100A600009D1E16A00F07060B0EB016F03D10020A2
:100A700002B0BDE8F081012002B0BDE8F0816069FC
:100A8000002840F20000C4F247205AD00121C0F8EB
:100A9000801EFFF7B5FD0546706F8007B7D4FFF7DE
:100AA000AFFD401B0228F7D9A8E0306C4FF00008DA
:100AB000C0000CD4CDF80480306C4FF0010840F039
:100AC00080503064306C00F080500190019847F203
:100AD0000007C4F200073868C00525D4386840F420
:100AE00080703860FFF78CFD054600BF3868C00590
:100AF0001AD4FFF785FD401B0228F7D97EE0E06895
:100B0000002851D00020C4F2472001210160FFF7E6
:100B100077FD0546306880073FF56FAFFFF770FD42
:100B2000401B0228F6D969E0A568012D05D0306F79
:100B3000052D4DD140F004003067306F40F00100CA
:100B40004CE00021C0F8801EFFF75AFD054600BFAB
:100B5000706F80077FF55BAFFFF752FD401B0228E7
:100B6000F6D94BE00027C4F2472700203866FFF78C
:100B700047FD022D05460BD13068800156D5FFF7A1
:100B80003FFD401B02284FF00300F5D970E700BF7E
:100B9000306880017FF56BAFFFF732FD401B022804
:100BA0004FF00300F4D963E70020C4F2472000218E
:100BB0000160FFF725FD0546306880077FF524AF0B
:100BC000FFF71EFD401B02284FF00300F4D94FE74A
:100BD00020F001003067306F20F004003067FFF72D
:100BE0000FFD002D054641F2883713D0306F800786
:100BF00013D4FFF705FD401BB842F7D9032002B01C
:100C0000BDE8F081FFF7FCFC401BB8424FF0030049
:100C10003FF62EAF306F8007F4D4B8F1000F3FF4E9
:100C2000F9AE306C20F080503064F3E604F11C051E
:100C30002FCD084340EA8210D9034FF6FF7291434B
:100C4000A1F5803140EA05600843706001203866F4
:100C5000FFF7D6FC044600BF306880013FF507AFC0
:100C6000FFF7CEFC001B02284FF00300F4D9FFE68B
:100C700080B500F05FF980BD002804BF01207047F7
:100C800010B5044690F8410028B9002084F84000CF
:100C9000204600F021F8242084F841002068C16833
:100CA00021F40051C160204600F0E2F9206801699A
:100CB00021F490410161416921F02A014161C1683B
:100CC00041F40051C16000202021606484F841108B
:100CD00084F84210606310BD2DE9F04387B0002610
:100CE0000024CDE90566CDE90366C4F2020400687C
:100CF000A4F5DE318842029602D007B0BDE8F08349
:100D000043F630000196C4F20200016902AD41F4DD
:100D10000031016101694FF0020801F400310191D5
:100D20000199019601684FF0030941F0010101604A
:100D30000068072700F0010001900198042002904C
:100D40000120049020462946CDF80C80CDF814905F
:100D50000697FFF781FB0820CDE9020820462946C7
:100D6000CDE904690697FFF777FB07B0BDE8F0838C
:100D70002DE9F041044690F8410020281CBF0220D4
:100D8000BDE8F0810E4600294FF0010042D0174621
:100D9000002A08BFBDE8F0814FF0000821201D4661
:100DA000C4F8448084F84100FFF72AFCA784E78454
:100DB000A1680746B1F5805F0DD12069002814BFF6
:100DC0003046B046064606E016F8010B216848603A
:100DD000E08C0138E084E08C80B1204680213A46E6
:100DE0002B4600F0B3F9B8B9002EEDD138F8020B5C
:100DF00021686FF35F2048600026E9E72046402124
:100E00003A462B4600F0A2F9202184F84110002830
:100E100018BF0320BDE8F081202084F841000320A2
:100E2000BDE8F081FEE7000070B586B0002543F60E
:100E300030000595CDE90355CDE901550095C4F283
:100E40000200016841F6000441F0040101600168FC
:100E5000C4F2020401F004010091009900950168B8
:100E6000002241F08001016001684FF4807601F0BA
:100E70008001009100990095016841F00101016035
:100E8000016801F00101009100990095016841F0AD
:100E90004001016000684FF4807100F04000009054
:100EA00000982046FFF7A6FB01200196CDE9020538
:100EB00001A920460495FFF7CFFA06B070BD0000E7
:100EC00080B540F2700044F20041C2F20000C4F26A
:100ED000000100234FF00C0C4FF4165280E80E0076
:100EE000C0E90333C0E905C3C361FFF7C5FE0028AD
:100EF00018BFFFF799FA80BDFEE70000FEE700008B
:100F000000F0070080F00703042B28BF04234FF0F4
:100F1000FF3C03380CFA03F338BF002099438140AB
:100F20000CFA00F022EA0000084370477047000006
:100F300070470000B0B501380024B4EB106F1CBF3F
:100F40000120B0BD4EF21005CEF2000568604FF0F2
:100F5000FF300F2100F056F90720AC6028602046D2
:100F6000B0BD000080B5FFF751FB80BD70B592B0F9
:100F700006AC20463021FFF7EFF9002543F640008C
:100F80000595CDE90355CDE901550095C4F2020060
:100F90000168022641F080510160006800F0805035
:100FA0000090009847F200000095C4F2000001682C
:100FB00041F480410160006800F480400090009896
:100FC0000120099010200A9008200696CDE90C65B2
:100FD0000E90A820CDE90F06042011902046FFF7BF
:100FE000A5FC88B90F20CDE901064FF4A05004906C
:100FF0004FF48050059001A805210395FFF788FB69
:10100000002804BF12B070BDFFF70EFA4EF68850EC
:10101000CEF20000016841F47001016070470000E9
:10102000016851E8031F026821F4907142E803133C
:10103000002BF5D1016851E8051F026821F001017C
:1010400042E80513002BF5D1016B01290AD100BF3D
:10105000016851E8031F026821F0100142E8031300
:10106000002BF5D1202180F8421000210163704748
:1010700010B504460068D4E902C22369016921F46D
:10108000405111430161626943EA0C01E369114374
:10109000C268194349F20C639A431143C160416924
:1010A000A26921F4407141F20043114340F480628F
:1010B000C4F201039A42416102D1FFF7F1FB01E062
:1010C000FFF7DCFBE16963681922B1F5004FA0FB73
:1010D00002011CD15A00DB0FFFF7C6F848F21F517E
:1010E000C5F2EB11A0FB01235A096FF0630302FB69
:1010F0000300322303EBC000A0FB01014FF4F870A2
:1011000000EA111000EB0210C1F342111AE09A003C
:101110009B0FFFF7A9F848F21F51C5F2EB11A0FB96
:1011200001235A096FF0630302FB0300322303EB30
:101130000010A0FB0101F02000EA511000EB0210AA
:10114000C1F3431122680843906010BD2DE9F041BE
:1011500082B00446006800680840884203D100203D
:1011600002B0BDE8F0811D460E4690465F1C04E0CB
:10117000206800683040B04228D0002FF8D0FFF738
:101180003FFA01464FF003000DB3A1EB0801A9425D
:101190001DD82068C1684907EAD5402EE8D0802EC6
:1011A000E6D001680907E3D50025019501680191A2
:1011B0004068019001982046FFF732FF08206064E4
:1011C00084F84050012002B0BDE8F081002002B058
:1011D000BDE8F081FEE7000081B04FF47A70009026
:1011E000009828B100980138009000980028F9D1A3
:1011F00001B070474EF60C50CEF200000068C0F30C
:10120000022070474EF6145300F00F02CEF2000396
:1012100009011A4400F16043B0F1FF3FC8BF03F574
:1012200064421170704700004EF60C51CEF200017E
:101230000A684FF6FF031A4060F30A2242F080600A
:1012400040F0FD700860704790B041F2E820C0F6B1
:10125000000090E84E00D0E90454D0E906CE049690
:1012600000F12006806B019102920393CDE90554B1
:101270007ECECDE907CE0F9009A87EC0FFF7D4F946
:10128000FFF774FEFFF7D0FDFFF71AFE41F60004EA
:1012900040F27005C4F20204C2F2000501AE00BFC4
:1012A000FFF79AFF20464FF480710122FFF7A2F961
:1012B000FFF792FF284631463C224FF6FF73FFF7B7
:1012C00057FD4FF47A70FFF7B3F8E9E7F1EE100A33
:1012D0004FF6FF71C0F2C03120EA010040F04070CB
:1012E000E1EE100A704700004C573C00010001017C
:1012F000FFFFFFFFFFFFFFFFFFFFFFFFFFFFFFFFFE
:10130000FFFFFFFFFFFFFFFFFFFFFFFFFFFFFFFFED
:10131000FFFFFFFFFFFFFFFFFFFFFFFFFFFFFFFFDD
:1013200000000D0A0000000000000000010203049C
:10133000060708090000000001020304601300080A
:101340000000002010000000C40100087013000815
:1013500010000020B0060000E001000800000000BE
:101360000024F40001000000100000000000000054
:040000050800018965
:00000001FF
